{
  "contractName": "Item",
  "abi": [
    {
      "inputs": [
        {
          "internalType": "contract ItemManager",
          "name": "_parentContract",
          "type": "address"
        },
        {
          "internalType": "uint256",
          "name": "_itemPrice",
          "type": "uint256"
        },
        {
          "internalType": "uint256",
          "name": "_index",
          "type": "uint256"
        }
      ],
      "stateMutability": "nonpayable",
      "type": "constructor"
    },
    {
      "inputs": [],
      "name": "index",
      "outputs": [
        {
          "internalType": "uint256",
          "name": "",
          "type": "uint256"
        }
      ],
      "stateMutability": "view",
      "type": "function"
    },
    {
      "inputs": [],
      "name": "itemPaid",
      "outputs": [
        {
          "internalType": "uint256",
          "name": "",
          "type": "uint256"
        }
      ],
      "stateMutability": "view",
      "type": "function"
    },
    {
      "inputs": [],
      "name": "itemPrice",
      "outputs": [
        {
          "internalType": "uint256",
          "name": "",
          "type": "uint256"
        }
      ],
      "stateMutability": "view",
      "type": "function"
    },
    {
      "stateMutability": "payable",
      "type": "receive"
    }
  ],
  "bytecode": "0x608060405234801561001057600080fd5b5060405161073c38038061073c833981810160405281019061003291906100b3565b816000819055508060018190555082600360006101000a81548173ffffffffffffffffffffffffffffffffffffffff021916908373ffffffffffffffffffffffffffffffffffffffff16021790555050505061017e565b60008151905061009881610150565b92915050565b6000815190506100ad81610167565b92915050565b6000806000606084860312156100c857600080fd5b60006100d686828701610089565b93505060206100e78682870161009e565b92505060406100f88682870161009e565b9150509250925092565b600061010d82610126565b9050919050565b600061011f82610102565b9050919050565b600073ffffffffffffffffffffffffffffffffffffffff82169050919050565b6000819050919050565b61015981610114565b811461016457600080fd5b50565b61017081610146565b811461017b57600080fd5b50565b6105af8061018d6000396000f3fe6080604052600436106100375760003560e01c806223278d146102455780632986c0e514610270578063dac6db1c1461029b57610240565b36610240576000543414610080576040517f08c379a000000000000000000000000000000000000000000000000000000000815260040161007790610435565b60405180910390fd5b6000600254146100c5576040517f08c379a00000000000000000000000000000000000000000000000000000000081526004016100bc90610415565b60405180910390fd5b34600260008282546100d791906104b7565b925050819055506000600360009054906101000a900473ffffffffffffffffffffffffffffffffffffffff1673ffffffffffffffffffffffffffffffffffffffff163460015460405160240161012d9190610475565b6040516020818303038152906040527f800fb83f000000000000000000000000000000000000000000000000000000007bffffffffffffffffffffffffffffffffffffffffffffffffffffffff19166020820180517bffffffffffffffffffffffffffffffffffffffffffffffffffffffff83818316178352505050506040516101b791906103fe565b60006040518083038185875af1925050503d80600081146101f4576040519150601f19603f3d011682016040523d82523d6000602084013e6101f9565b606091505b505090508061023d576040517f08c379a000000000000000000000000000000000000000000000000000000000815260040161023490610455565b60405180910390fd5b50005b600080fd5b34801561025157600080fd5b5061025a6102c6565b6040516102679190610475565b60405180910390f35b34801561027c57600080fd5b506102856102cc565b6040516102929190610475565b60405180910390f35b3480156102a757600080fd5b506102b06102d2565b6040516102bd9190610475565b60405180910390f35b60025481565b60015481565b60005481565b60006102e382610490565b6102ed818561049b565b93506102fd818560208601610517565b80840191505092915050565b60006103166015836104a6565b91507f4974656d20697320616c726561647920706169642100000000000000000000006000830152602082019050919050565b60006103566021836104a6565b91507f576520646f6e277420737570706f7274207061727469616c207061796d656e7460008301527f73000000000000000000000000000000000000000000000000000000000000006020830152604082019050919050565b60006103bc6015836104a6565b91507f44656c697665727920646964206e6f7420776f726b00000000000000000000006000830152602082019050919050565b6103f88161050d565b82525050565b600061040a82846102d8565b915081905092915050565b6000602082019050818103600083015261042e81610309565b9050919050565b6000602082019050818103600083015261044e81610349565b9050919050565b6000602082019050818103600083015261046e816103af565b9050919050565b600060208201905061048a60008301846103ef565b92915050565b600081519050919050565b600081905092915050565b600082825260208201905092915050565b60006104c28261050d565b91506104cd8361050d565b9250827fffffffffffffffffffffffffffffffffffffffffffffffffffffffffffffffff038211156105025761050161054a565b5b828201905092915050565b6000819050919050565b60005b8381101561053557808201518184015260208101905061051a565b83811115610544576000848401525b50505050565b7f4e487b7100000000000000000000000000000000000000000000000000000000600052601160045260246000fdfea2646970667358221220e097e6482701285eace85c301402f11d8b217bd3f81bbc56fba3aee68ac2ee9064736f6c63430008000033",
  "immutableReferences": {},
  "source": "//SPDX-License-Identifier: MIT\npragma solidity ^0.8.0;\n\nimport \"./ItemManager.sol\";\n\ncontract Item {\n    uint256 public itemPrice;\n    uint256 public index;\n    uint256 public itemPaid;\n\n    ItemManager parentContract;\n\n    constructor(\n        ItemManager _parentContract,\n        uint256 _itemPrice,\n        uint256 _index\n    ) {\n        itemPrice = _itemPrice;\n        index = _index;\n        parentContract = _parentContract;\n    }\n\n    receive() external payable {\n        require(msg.value == itemPrice, \"We don't support partial payments\");\n        require(itemPaid == 0, \"Item is already paid!\");\n        itemPaid += msg.value;\n        (bool success, ) = address(parentContract).call{value: msg.value}(\n            abi.encodeWithSignature(\"triggerPayment(uint256)\", index)\n        );\n        require(success, \"Delivery did not work\");\n    }\n}\n",
  "sourcePath": "/Users/stankovic_dusan/Desktop/supply-chain-project/contracts/Item.sol",
  "compiler": {
    "name": "solc",
    "version": "0.8.0+commit.c7dfd78e.Emscripten.clang"
  },
  "schemaVersion": "3.4.7",
  "updatedAt": "2022-05-21T15:37:51.403Z",
  "devdoc": {
    "kind": "dev",
    "methods": {},
    "version": 1
  },
  "userdoc": {
    "kind": "user",
    "methods": {},
    "version": 1
  }
}