{
  "contractName": "ItemManager",
  "abi": [
    {
      "anonymous": false,
      "inputs": [
        {
          "indexed": true,
          "internalType": "address",
          "name": "previousOwner",
          "type": "address"
        },
        {
          "indexed": true,
          "internalType": "address",
          "name": "newOwner",
          "type": "address"
        }
      ],
      "name": "OwnershipTransferred",
      "type": "event"
    },
    {
      "anonymous": false,
      "inputs": [
        {
          "indexed": false,
          "internalType": "uint256",
          "name": "_itemIndex",
          "type": "uint256"
        },
        {
          "indexed": false,
          "internalType": "uint256",
          "name": "_step",
          "type": "uint256"
        },
        {
          "indexed": false,
          "internalType": "address",
          "name": "_itemAddress",
          "type": "address"
        }
      ],
      "name": "SupplyChainStep",
      "type": "event"
    },
    {
      "inputs": [
        {
          "internalType": "uint256",
          "name": "",
          "type": "uint256"
        }
      ],
      "name": "items",
      "outputs": [
        {
          "internalType": "contract Item",
          "name": "item",
          "type": "address"
        },
        {
          "internalType": "string",
          "name": "identifier",
          "type": "string"
        },
        {
          "internalType": "uint256",
          "name": "itemPrice",
          "type": "uint256"
        },
        {
          "internalType": "enum ItemManager.SupplyChainSteps",
          "name": "step",
          "type": "uint8"
        }
      ],
      "stateMutability": "view",
      "type": "function",
      "constant": true
    },
    {
      "inputs": [],
      "name": "owner",
      "outputs": [
        {
          "internalType": "address",
          "name": "",
          "type": "address"
        }
      ],
      "stateMutability": "view",
      "type": "function",
      "constant": true
    },
    {
      "inputs": [],
      "name": "renounceOwnership",
      "outputs": [],
      "stateMutability": "nonpayable",
      "type": "function"
    },
    {
      "inputs": [
        {
          "internalType": "address",
          "name": "newOwner",
          "type": "address"
        }
      ],
      "name": "transferOwnership",
      "outputs": [],
      "stateMutability": "nonpayable",
      "type": "function"
    },
    {
      "inputs": [
        {
          "internalType": "string",
          "name": "_identifier",
          "type": "string"
        },
        {
          "internalType": "uint256",
          "name": "_itemPrice",
          "type": "uint256"
        }
      ],
      "name": "createItem",
      "outputs": [],
      "stateMutability": "nonpayable",
      "type": "function"
    },
    {
      "inputs": [
        {
          "internalType": "uint256",
          "name": "_index",
          "type": "uint256"
        }
      ],
      "name": "triggerPayment",
      "outputs": [],
      "stateMutability": "payable",
      "type": "function",
      "payable": true
    },
    {
      "inputs": [
        {
          "internalType": "uint256",
          "name": "_index",
          "type": "uint256"
        }
      ],
      "name": "triggerDelivery",
      "outputs": [],
      "stateMutability": "nonpayable",
      "type": "function"
    }
  ],
  "bytecode": "0x608060405234801561001057600080fd5b5061002d61002261003260201b60201c565b61003a60201b60201c565b6100fe565b600033905090565b60008060009054906101000a900473ffffffffffffffffffffffffffffffffffffffff169050816000806101000a81548173ffffffffffffffffffffffffffffffffffffffff021916908373ffffffffffffffffffffffffffffffffffffffff1602179055508173ffffffffffffffffffffffffffffffffffffffff168173ffffffffffffffffffffffffffffffffffffffff167f8be0079c531659141344cd1fd0a4f28419497f9722a3daafe3b4186f6b6457e060405160405180910390a35050565b611f608061010d6000396000f3fe6080604052600436106200007a5760003560e01c80638da5cb5b11620000555780638da5cb5b14620000e7578063bfb231d21462000117578063cd31831e146200015e578063f2fde38b146200018c576200007a565b8063715018a6146200007f578063800fb83f14620000995780638c55174214620000b9575b600080fd5b3480156200008c57600080fd5b5062000097620001ba565b005b620000b76004803603810190620000b1919062001030565b6200024b565b005b348015620000c657600080fd5b50620000e56004803603810190620000df919062000fd6565b6200062c565b005b348015620000f457600080fd5b50620000ff620008b9565b6040516200010e91906200131c565b60405180910390f35b3480156200012457600080fd5b506200014360048036038101906200013d919062001030565b620008e2565b60405162000155949392919062001376565b60405180910390f35b3480156200016b57600080fd5b506200018a600480360381019062000184919062001030565b620009cf565b005b3480156200019957600080fd5b50620001b86004803603810190620001b2919062000faa565b62000c65565b005b620001c462000d69565b73ffffffffffffffffffffffffffffffffffffffff16620001e4620008b9565b73ffffffffffffffffffffffffffffffffffffffff16146200023d576040517f08c379a000000000000000000000000000000000000000000000000000000000815260040162000234906200140e565b60405180910390fd5b62000249600062000d71565b565b60006001600083815260200190815260200160002060000160009054906101000a900473ffffffffffffffffffffffffffffffffffffffff1690503373ffffffffffffffffffffffffffffffffffffffff168173ffffffffffffffffffffffffffffffffffffffff1614620002f7576040517f08c379a0000000000000000000000000000000000000000000000000000000008152600401620002ee9062001452565b60405180910390fd5b348173ffffffffffffffffffffffffffffffffffffffff1663dac6db1c6040518163ffffffff1660e01b815260040160206040518083038186803b1580156200033f57600080fd5b505afa15801562000354573d6000803e3d6000fd5b505050506040513d601f19601f820116820180604052508101906200037a91906200105c565b14620003bd576040517f08c379a0000000000000000000000000000000000000000000000000000000008152600401620003b49062001430565b60405180910390fd5b346001600084815260200190815260200160002060020154111562000419576040517f08c379a00000000000000000000000000000000000000000000000000000000081526004016200041090620013ec565b60405180910390fd5b6000600281111562000454577f4e487b7100000000000000000000000000000000000000000000000000000000600052602160045260246000fd5b6001600084815260200190815260200160002060030160009054906101000a900460ff166002811115620004b1577f4e487b7100000000000000000000000000000000000000000000000000000000600052602160045260246000fd5b14620004f4576040517f08c379a0000000000000000000000000000000000000000000000000000000008152600401620004eb9062001474565b60405180910390fd5b600180600084815260200190815260200160002060030160006101000a81548160ff0219169083600281111562000554577f4e487b7100000000000000000000000000000000000000000000000000000000600052602160045260246000fd5b02179055507fa4035636e99f06b7651a604c1019fa4e8779fe68ef27eeb74dff2de348f6199b826001600085815260200190815260200160002060030160009054906101000a900460ff166002811115620005d8577f4e487b7100000000000000000000000000000000000000000000000000000000600052602160045260246000fd5b6001600086815260200190815260200160002060000160009054906101000a900473ffffffffffffffffffffffffffffffffffffffff16604051620006209392919062001496565b60405180910390a15050565b6200063662000d69565b73ffffffffffffffffffffffffffffffffffffffff1662000656620008b9565b73ffffffffffffffffffffffffffffffffffffffff1614620006af576040517f08c379a0000000000000000000000000000000000000000000000000000000008152600401620006a6906200140e565b60405180910390fd5b60003082600254604051620006c49062000e35565b620006d29392919062001339565b604051809103906000f080158015620006ef573d6000803e3d6000fd5b5090508060016000600254815260200190815260200160002060000160006101000a81548173ffffffffffffffffffffffffffffffffffffffff021916908373ffffffffffffffffffffffffffffffffffffffff1602179055508260016000600254815260200190815260200160002060010190805190602001906200077792919062000e43565b508160016000600254815260200190815260200160002060020181905550600060016000600254815260200190815260200160002060030160006101000a81548160ff02191690836002811115620007f8577f4e487b7100000000000000000000000000000000000000000000000000000000600052602160045260246000fd5b02179055507fa4035636e99f06b7651a604c1019fa4e8779fe68ef27eeb74dff2de348f6199b60025460016000600254815260200190815260200160002060030160009054906101000a900460ff16600281111562000880577f4e487b7100000000000000000000000000000000000000000000000000000000600052602160045260246000fd5b83604051620008929392919062001496565b60405180910390a160026000815480929190620008af9062001688565b9190505550505050565b60008060009054906101000a900473ffffffffffffffffffffffffffffffffffffffff16905090565b60016020528060005260406000206000915090508060000160009054906101000a900473ffffffffffffffffffffffffffffffffffffffff16908060010180546200092d9062001652565b80601f01602080910402602001604051908101604052809291908181526020018280546200095b9062001652565b8015620009ac5780601f106200098057610100808354040283529160200191620009ac565b820191906000526020600020905b8154815290600101906020018083116200098e57829003601f168201915b5050505050908060020154908060030160009054906101000a900460ff16905084565b620009d962000d69565b73ffffffffffffffffffffffffffffffffffffffff16620009f9620008b9565b73ffffffffffffffffffffffffffffffffffffffff161462000a52576040517f08c379a000000000000000000000000000000000000000000000000000000000815260040162000a49906200140e565b60405180910390fd5b6001600281111562000a8d577f4e487b7100000000000000000000000000000000000000000000000000000000600052602160045260246000fd5b6001600083815260200190815260200160002060030160009054906101000a900460ff16600281111562000aea577f4e487b7100000000000000000000000000000000000000000000000000000000600052602160045260246000fd5b1462000b2d576040517f08c379a000000000000000000000000000000000000000000000000000000000815260040162000b249062001474565b60405180910390fd5b60026001600083815260200190815260200160002060030160006101000a81548160ff0219169083600281111562000b8e577f4e487b7100000000000000000000000000000000000000000000000000000000600052602160045260246000fd5b02179055507fa4035636e99f06b7651a604c1019fa4e8779fe68ef27eeb74dff2de348f6199b816001600084815260200190815260200160002060030160009054906101000a900460ff16600281111562000c12577f4e487b7100000000000000000000000000000000000000000000000000000000600052602160045260246000fd5b6001600085815260200190815260200160002060000160009054906101000a900473ffffffffffffffffffffffffffffffffffffffff1660405162000c5a9392919062001496565b60405180910390a150565b62000c6f62000d69565b73ffffffffffffffffffffffffffffffffffffffff1662000c8f620008b9565b73ffffffffffffffffffffffffffffffffffffffff161462000ce8576040517f08c379a000000000000000000000000000000000000000000000000000000000815260040162000cdf906200140e565b60405180910390fd5b600073ffffffffffffffffffffffffffffffffffffffff168173ffffffffffffffffffffffffffffffffffffffff16141562000d5b576040517f08c379a000000000000000000000000000000000000000000000000000000000815260040162000d5290620013ca565b60405180910390fd5b62000d668162000d71565b50565b600033905090565b60008060009054906101000a900473ffffffffffffffffffffffffffffffffffffffff169050816000806101000a81548173ffffffffffffffffffffffffffffffffffffffff021916908373ffffffffffffffffffffffffffffffffffffffff1602179055508173ffffffffffffffffffffffffffffffffffffffff168173ffffffffffffffffffffffffffffffffffffffff167f8be0079c531659141344cd1fd0a4f28419497f9722a3daafe3b4186f6b6457e060405160405180910390a35050565b61073c80620017ef83390190565b82805462000e519062001652565b90600052602060002090601f01602090048101928262000e75576000855562000ec1565b82601f1062000e9057805160ff191683800117855562000ec1565b8280016001018555821562000ec1579182015b8281111562000ec057825182559160200191906001019062000ea3565b5b50905062000ed0919062000ed4565b5090565b5b8082111562000eef57600081600090555060010162000ed5565b5090565b600062000f0a62000f048462001507565b620014d3565b90508281526020810184848401111562000f2357600080fd5b62000f308482856200160d565b509392505050565b60008135905062000f4981620017ba565b92915050565b600082601f83011262000f6157600080fd5b813562000f7384826020860162000ef3565b91505092915050565b60008135905062000f8d81620017d4565b92915050565b60008151905062000fa481620017d4565b92915050565b60006020828403121562000fbd57600080fd5b600062000fcd8482850162000f38565b91505092915050565b6000806040838503121562000fea57600080fd5b600083013567ffffffffffffffff8111156200100557600080fd5b620010138582860162000f4f565b9250506020620010268582860162000f7c565b9150509250929050565b6000602082840312156200104357600080fd5b6000620010538482850162000f7c565b91505092915050565b6000602082840312156200106f57600080fd5b60006200107f8482850162000f93565b91505092915050565b620010938162001556565b82525050565b620010a481620015a9565b82525050565b620010b581620015d1565b82525050565b620010c681620015f9565b82525050565b6000620010d9826200153a565b620010e5818562001545565b9350620010f78185602086016200161c565b620011028162001792565b840191505092915050565b60006200111c60268362001545565b91507f4f776e61626c653a206e6577206f776e657220697320746865207a65726f206160008301527f64647265737300000000000000000000000000000000000000000000000000006020830152604082019050919050565b600062001184600f8362001545565b91507f4e6f742066756c6c7920706169642100000000000000000000000000000000006000830152602082019050919050565b6000620011c660208362001545565b91507f4f776e61626c653a2063616c6c6572206973206e6f7420746865206f776e65726000830152602082019050919050565b60006200120860128362001545565b91507f4e6f742066756c6c7920706169642079657400000000000000000000000000006000830152602082019050919050565b60006200124a602b8362001545565b91507f4f6e6c79206974656d732061726520616c6c6f77656420746f2075706461746560008301527f207468656d73656c7665730000000000000000000000000000000000000000006020830152604082019050919050565b6000620012b260238362001545565b91507f4974656d206973206675727468657220696e2074686520737570706c7920636860008301527f61696e00000000000000000000000000000000000000000000000000000000006020830152604082019050919050565b62001316816200159f565b82525050565b600060208201905062001333600083018462001088565b92915050565b600060608201905062001350600083018662001099565b6200135f60208301856200130b565b6200136e60408301846200130b565b949350505050565b60006080820190506200138d6000830187620010aa565b8181036020830152620013a18186620010cc565b9050620013b260408301856200130b565b620013c16060830184620010bb565b95945050505050565b60006020820190508181036000830152620013e5816200110d565b9050919050565b60006020820190508181036000830152620014078162001175565b9050919050565b600060208201905081810360008301526200142981620011b7565b9050919050565b600060208201905081810360008301526200144b81620011f9565b9050919050565b600060208201905081810360008301526200146d816200123b565b9050919050565b600060208201905081810360008301526200148f81620012a3565b9050919050565b6000606082019050620014ad60008301866200130b565b620014bc60208301856200130b565b620014cb604083018462001088565b949350505050565b6000604051905081810181811067ffffffffffffffff82111715620014fd57620014fc62001763565b5b8060405250919050565b600067ffffffffffffffff82111562001525576200152462001763565b5b601f19601f8301169050602081019050919050565b600081519050919050565b600082825260208201905092915050565b600062001563826200157f565b9050919050565b60008190506200157a82620017a3565b919050565b600073ffffffffffffffffffffffffffffffffffffffff82169050919050565b6000819050919050565b6000620015b682620015bd565b9050919050565b6000620015ca826200157f565b9050919050565b6000620015de82620015e5565b9050919050565b6000620015f2826200157f565b9050919050565b600062001606826200156a565b9050919050565b82818337600083830152505050565b60005b838110156200163c5780820151818401526020810190506200161f565b838111156200164c576000848401525b50505050565b600060028204905060018216806200166b57607f821691505b6020821081141562001682576200168162001734565b5b50919050565b600062001695826200159f565b91507fffffffffffffffffffffffffffffffffffffffffffffffffffffffffffffffff821415620016cb57620016ca620016d6565b5b600182019050919050565b7f4e487b7100000000000000000000000000000000000000000000000000000000600052601160045260246000fd5b7f4e487b7100000000000000000000000000000000000000000000000000000000600052602160045260246000fd5b7f4e487b7100000000000000000000000000000000000000000000000000000000600052602260045260246000fd5b7f4e487b7100000000000000000000000000000000000000000000000000000000600052604160045260246000fd5b6000601f19601f8301169050919050565b60038110620017b757620017b662001705565b5b50565b620017c58162001556565b8114620017d157600080fd5b50565b620017df816200159f565b8114620017eb57600080fd5b5056fe608060405234801561001057600080fd5b5060405161073c38038061073c833981810160405281019061003291906100b3565b816000819055508060018190555082600360006101000a81548173ffffffffffffffffffffffffffffffffffffffff021916908373ffffffffffffffffffffffffffffffffffffffff16021790555050505061017e565b60008151905061009881610150565b92915050565b6000815190506100ad81610167565b92915050565b6000806000606084860312156100c857600080fd5b60006100d686828701610089565b93505060206100e78682870161009e565b92505060406100f88682870161009e565b9150509250925092565b600061010d82610126565b9050919050565b600061011f82610102565b9050919050565b600073ffffffffffffffffffffffffffffffffffffffff82169050919050565b6000819050919050565b61015981610114565b811461016457600080fd5b50565b61017081610146565b811461017b57600080fd5b50565b6105af8061018d6000396000f3fe6080604052600436106100375760003560e01c806223278d146102455780632986c0e514610270578063dac6db1c1461029b57610240565b36610240576000543414610080576040517f08c379a000000000000000000000000000000000000000000000000000000000815260040161007790610435565b60405180910390fd5b6000600254146100c5576040517f08c379a00000000000000000000000000000000000000000000000000000000081526004016100bc90610415565b60405180910390fd5b34600260008282546100d791906104b7565b925050819055506000600360009054906101000a900473ffffffffffffffffffffffffffffffffffffffff1673ffffffffffffffffffffffffffffffffffffffff163460015460405160240161012d9190610475565b6040516020818303038152906040527f800fb83f000000000000000000000000000000000000000000000000000000007bffffffffffffffffffffffffffffffffffffffffffffffffffffffff19166020820180517bffffffffffffffffffffffffffffffffffffffffffffffffffffffff83818316178352505050506040516101b791906103fe565b60006040518083038185875af1925050503d80600081146101f4576040519150601f19603f3d011682016040523d82523d6000602084013e6101f9565b606091505b505090508061023d576040517f08c379a000000000000000000000000000000000000000000000000000000000815260040161023490610455565b60405180910390fd5b50005b600080fd5b34801561025157600080fd5b5061025a6102c6565b6040516102679190610475565b60405180910390f35b34801561027c57600080fd5b506102856102cc565b6040516102929190610475565b60405180910390f35b3480156102a757600080fd5b506102b06102d2565b6040516102bd9190610475565b60405180910390f35b60025481565b60015481565b60005481565b60006102e382610490565b6102ed818561049b565b93506102fd818560208601610517565b80840191505092915050565b60006103166015836104a6565b91507f4974656d20697320616c726561647920706169642100000000000000000000006000830152602082019050919050565b60006103566021836104a6565b91507f576520646f6e277420737570706f7274207061727469616c207061796d656e7460008301527f73000000000000000000000000000000000000000000000000000000000000006020830152604082019050919050565b60006103bc6015836104a6565b91507f44656c697665727920646964206e6f7420776f726b00000000000000000000006000830152602082019050919050565b6103f88161050d565b82525050565b600061040a82846102d8565b915081905092915050565b6000602082019050818103600083015261042e81610309565b9050919050565b6000602082019050818103600083015261044e81610349565b9050919050565b6000602082019050818103600083015261046e816103af565b9050919050565b600060208201905061048a60008301846103ef565b92915050565b600081519050919050565b600081905092915050565b600082825260208201905092915050565b60006104c28261050d565b91506104cd8361050d565b9250827fffffffffffffffffffffffffffffffffffffffffffffffffffffffffffffffff038211156105025761050161054a565b5b828201905092915050565b6000819050919050565b60005b8381101561053557808201518184015260208101905061051a565b83811115610544576000848401525b50505050565b7f4e487b7100000000000000000000000000000000000000000000000000000000600052601160045260246000fdfea2646970667358221220e097e6482701285eace85c301402f11d8b217bd3f81bbc56fba3aee68ac2ee9064736f6c63430008000033a2646970667358221220bab07e9f946300755e5b9f9dda9e9d289b78a27b4157e1124670ba6621f9f0aa64736f6c63430008000033",
  "immutableReferences": {},
  "source": "//SPDX-License-Identifier: MIT\npragma solidity ^0.8.0;\n\nimport \"./Item.sol\";\nimport \"openzeppelin-solidity/contracts/access/Ownable.sol\";\n\ncontract ItemManager is Ownable {\n    enum SupplyChainSteps {\n        Created,\n        Paid,\n        Delivered\n    }\n\n    struct S_Item {\n        Item item;\n        string identifier;\n        uint256 itemPrice;\n        ItemManager.SupplyChainSteps step;\n    }\n\n    mapping(uint256 => S_Item) public items;\n    uint256 index;\n\n    event SupplyChainStep(\n        uint256 _itemIndex,\n        uint256 _step,\n        address _itemAddress\n    );\n\n    function createItem(string memory _identifier, uint256 _itemPrice)\n        public\n        onlyOwner\n    {\n        Item item = new Item(this, _itemPrice, index);\n        items[index].item = item;\n        items[index].identifier = _identifier;\n        items[index].itemPrice = _itemPrice;\n        items[index].step = SupplyChainSteps.Created;\n\n        emit SupplyChainStep(index, uint256(items[index].step), address(item));\n        index++;\n    }\n\n    function triggerPayment(uint256 _index) public payable {\n        Item item = items[_index].item;\n        require(\n            address(item) == msg.sender,\n            \"Only items are allowed to update themselves\"\n        );\n        require(item.itemPrice() == msg.value, \"Not fully paid yet\");\n        require(items[_index].itemPrice <= msg.value, \"Not fully paid!\");\n        require(\n            items[_index].step == SupplyChainSteps.Created,\n            \"Item is further in the supply chain\"\n        );\n\n        items[_index].step = SupplyChainSteps.Paid;\n        emit SupplyChainStep(\n            _index,\n            uint256(items[_index].step),\n            address(items[_index].item)\n        );\n    }\n\n    function triggerDelivery(uint256 _index) public onlyOwner {\n        require(\n            items[_index].step == SupplyChainSteps.Paid,\n            \"Item is further in the supply chain\"\n        );\n        items[_index].step = SupplyChainSteps.Delivered;\n        emit SupplyChainStep(\n            _index,\n            uint256(items[_index].step),\n            address(items[_index].item)\n        );\n    }\n}\n",
  "sourcePath": "/Users/stankovic_dusan/Desktop/supply-chain-project/contracts/ItemManager.sol",
  "compiler": {
    "name": "solc",
    "version": "0.8.0+commit.c7dfd78e.Emscripten.clang"
  },
  "schemaVersion": "3.4.7",
  "updatedAt": "2022-05-21T16:25:51.311Z",
  "networkType": "ethereum",
  "devdoc": {
    "kind": "dev",
    "methods": {
      "owner()": {
        "details": "Returns the address of the current owner."
      },
      "renounceOwnership()": {
        "details": "Leaves the contract without owner. It will not be possible to call `onlyOwner` functions anymore. Can only be called by the current owner. NOTE: Renouncing ownership will leave the contract without an owner, thereby removing any functionality that is only available to the owner."
      },
      "transferOwnership(address)": {
        "details": "Transfers ownership of the contract to a new account (`newOwner`). Can only be called by the current owner."
      }
    },
    "version": 1
  },
  "userdoc": {
    "kind": "user",
    "methods": {},
    "version": 1
  }
}